:0600000014C0FECFFDCF8D
:10000600FCCFFBCF43C0F9CF65C0F7CFF6CF5CC0BE
:10001600F4CFF3CFF2CFF1CF0000000004000200CE
:100026001E000000F894EE27ECBBE5BFF8E1A895AA
:10003600A4B7A77FA4BFF1BDE1BD8DE0A2E0BB27B9
:10004600ED938A95E9F780E092E0A0E6ED930197BB
:10005600E9F7E2E2F0E085919591009761F0A591CC
:10006600B59105901590BF01F00105900D9201978D
:10007600E1F7FB01F0CFE0E0E1BBE2BBE3BBEFE57C
:10008600EDBFE2E0EEBFC0EED0E02EC05DD00000D6
:1000960000000000222039F4332019F0C19AC39AD7
:1000A60002C0C09AC29AE1E03E264394EAE0E41513
:1000B60018F4E9B5E43F08F004C0E9B5EF5FE9BD1F
:1000C6004424E4E6E2BF0CC03FD0E8B3E07FE8BBDF
:1000D600A89506C039D0E9B5E13810F0E1E02E2E3A
:1000E600E991EFBFE9911895E0E8E6BDE0E0E6BDED
:1000F600E8BBEFE0E7BBE0E0EABDE3E0E3BFE4E650
:10010600E2BFE6E6E9BDE0E0E8BDE7BDE0BFECBD85
:10011600EFBDEEBDEBBDEDBDEBBFE5BFE2E1E9BF77
:10012600E0E0EDB9EAE4E8B9E0E4E3B9E2E0E7B932
:10013600E0E1E4BBE0E0E6B9A895E9E3E1BDE9E288
:10014600E1BD7894FFCFFFCFEA93EFB7EA93089526
:00000001FF
